:1000000045C00000C3C000005EC000005CC000002E
:100010005AC0000058C0000056C0000054C0000084
:1000200052C0000050C000004EC000004CC0000094
:100030004AC0000048C0000046C0000044C00000A4
:1000400042C0000040C000003EC000003CC00000B4
:100050003AC0000038C0000036C0000034C00000C4
:1000600032C0000030C000002EC000002CC00000D4
:100070002AC0000028C0000026C0000024C00000E4
:1000800022C0000020C000001EC0000011241FBEBE
:10009000CFEFD0E1DEBFCDBF11E0A0E0B1E0E4EBF7
:1000A000F2E000E00BBF02C007900D92AE31B10745
:1000B000D9F721E0AEE1B1E001C01D92AE31B20747
:1000C000E1F7EBD0F5C09CCFFC012081222359F051
:1000D00030E02CB95D9BFECF3F5FFC01E30FF11DCB
:1000E00020812111F6CF089587B38C6287BB80E50C
:1000F0008DB9089581B3866081BB8898919A929852
:10010000F3CF08958FB9779BFECF8FB10895919863
:10011000F9DF919A089591988F71F4DF8FEFF2DFF4
:10012000919A0895CF93DF93D62F91988F71806223
:10013000E9DFC82F8D2FE6DF919A8C2FDF91CF91C9
:100140000895919880E6DEDF8FEFDCDF919A0895C5
:10015000EF92FF920F931F93CF93DF93E62EF72E2C
:10016000142F9198CFDF082F112339F0CE2DDF2DDA
:100170008FEFC8DF89931150D9F7919A802FDF91C3
:10018000CF911F910F91FF90EF9008951F920F92C2
:100190000FB60F9211240BB60F922F933F934F93EC
:1001A0005F936F937F938F939F93AF93BF93EF93DF
:1001B000FF9386E191E088DF6EE287E0B3DF8FE1B5
:1001C0009EE40197F1F700C00000FF91EF91BF910D
:1001D000AF919F918F917F916F915F914F913F91DF
:1001E0002F910F900BBE0F900FBE0F901F90189580
:1001F00090B3937081E009F080E008951F93CF934E
:10020000DF93CDB7DEB7A0970FB6F894DEBF0FBE71
:10021000CDBFEEDF882309F436C08FEF78DF182FCB
:10022000682F87E07FDF812F807369F014FF02C0A1
:1002300081EE6DDF87E16FDF84FD09C0929A88E26D
:100240008A95F1F792981E701E3049F41CC080E028
:1002500062DF682F616080E065DF929AF4CF14E07E
:1002600070DF813218F082EE52DF06C0482FBE01E7
:100270006F5F7F4F81E66CDF8FEF49DF8E708E30CE
:1002800011F0115069F7A0960FB6F894DEBF0FBEBB
:10029000CDBFDF91CF911F91089589B7806489BF49
:1002A000EAE6F0E080818260808324DFA7DFFDCF73
:0402B000F894FFCFF0
:1002B400424D50204F4B200A00424D50206E6F7427
:0E02C400204F4B200A00495352206F6E21003C
:00000001FF
